:10000000F8FF002011040000C13D0000C13D0000C8
:10001000C13D0000C13D0000C13D0000C13D0000E8
:10002000C13D0000C13D0000C13D0000C13D0000D8
:10003000C13D0000C13D0000C13D0000C13D0000C8
:10004000C13D0000C13D0000C13D0000C13D0000B8
:10040000FFFFFFFFFFFFFFFFFFFFFFFFFEFFFFFFFD
:1004100062B604F0CFFBFEE7000000000000000021
:1004200000000000000000000000000000000000CC
:1004300000000000000000000000000000000000BC
:1004400000000000000000000000000F80380FFED8
:10045000380F80380000000000000000000000009D
:100460000000000000000100000600000C00003841
:1004700000003100000600000C00003800003000D1
:10048000000000000000000061800067F807F980AC
:100490000061800061800061800061800067F80772
:1004A000F98000618000000000000000000001C031
:1004B000E003E0F00630080418081FFFFE040E08F1
:1004C0000787F00381E000000000000001F0000653
:1004D0000C00040408060C7001F9C0000E00003B7B
:1004E000E000EC18070808040C180003E000000006
:1004F0000001E00007F003F818041C0804170807BF
:10050000E1D003C0E00023B0003C08002008000058
:100510001000000000000001000031000032000067
:100520001C000000000000000000000000000000AF
:1005300000000000000000000000000000000000BB
:1005400000000000000000007F0001FFC00780F0F5
:100550000C00181000042000020000000000002021
:1005600000021000040C00180780F001FFC0007F9B
:10057000000000000000000000000000000000007B
:10058000000000004200006600006600003C000021
:10059000180003FFC0001800003C00006600006661
:1005A00000004200000000000800000800000800F1
:1005B00000080000080001FFC0000800000800005B
:1005C0000800000800000800000000000001000012
:1005D0003100003200001C0000000000000000009C
:1005E000000000000000000000000000000000000B
:1005F00008000008000008000008000008000008CB
:1006000000000800000800000800000800000000CA
:100610000000000000000000380000380000380032
:1006200000000000000000000000000000000000CA
:100630000000000000000000000600001C00007028
:10064000000180000E0000380000C0000700001C00
:100650000000300000000000000000007F8001FF6B
:10066000E003807006001804000804000806001863
:1006700003807001FFE0007F8000000000000000A8
:10068000000001000801000801000803FFF807FF4F
:10069000F80000080000080000080000000000004A
:1006A00000000001C03802C058040098040118047A
:1006B0000218040418061C1803F81801E0F80000DA
:1006C0000000000000000001C0E003C0F0040008CA
:1006D00004080804080806180803F41801E7F000E5
:1006E00001E0000000000000000000000300000D19
:1006F0000000110000610000810803010807FFF8F5
:100700000FFFF800010800010800000000000000D1
:1007100000E007FCD00608080610080610080610BE
:1007200008061838060FF00607C000000000000099
:10073000000000003F8001FFE0038430020818043D
:100740001008041008041008071810030FF0000721
:10075000C000000000000000000003C0000700000F
:100760000600000600F80607F806180006E0000775
:10077000000006000000000000000001E1E003F7B7
:10078000F0063410041808041808040C08040C08B7
:1007900006161803F3F001C1E0000000000000009D
:1007A000F80003FC300306380402080402080402BF
:1007B000080404100308F001FFC0007F00000000DF
:1007C0000000000000000000000000000000000029
:1007D0007038007038007038000000000000000021
:1007E0000000000000000000000000000000000009
:1007F00000000000301A00301C0000000000000063
:1008000000000000000000000000000000000008E0
:100810000000140000220000410000808001004020
:100820000200200400100800080000000000000082
:1008300021000021000021000021000021000021F2
:100840000000210000210000210000210000000024
:100850000000000000000800080400100200200151
:1008600000400080800041000022000014000008C9
:100870000000000000000003C00004C000040000ED
:10088000080038080F380808380810000C30000736
:10089000E00003C000000000000000003F8000FFF7
:1008A000E0038070020F1006708804C0880483087B
:1008B000047F8802C09003012000FE400000080071
:1008C00000180001F8003E0801C20007020007E21C
:1008D0000000FE00001FC80001F8000038000008FA
:1008E00004000807FFF807FFF804080804080804D4
:1008F000080804080806180803F41801E7F00001C6
:10090000E0000000000000003F8001FFE003807075
:10091000020018040008040008040008040010067F
:1009200000200780C000000004000807FFF807FF50
:10093000F80400080400080400080400180200106D
:1009400003807001FFE0007F8000000004000807C2
:10095000FFF807FFF804080804080804080804085A
:1009600008043E08040008060018010060000000AA
:1009700004000807FFF807FFF8040808040800044B
:100980000800040800043E00060000060000018084
:1009900000000000000000003F8001FFE0038070C5
:1009A0000600180400080402080402080203F00705
:1009B00083F000020000020004000807FFF807FFB0
:1009C000F8040808000800000800000800000800FB
:1009D00004080807FFF807FFF804000800000000FB
:1009E000000004000804000804000807FFF807FFDF
:1009F000F8040008040008040008000000000000DB
:100A000000000000000600000700000104000104CF
:100A1000000104000307FFFE07FFFC0400000400C0
:100A20000004000004000807FFF807FFF8040C08A2
:100A3000001800003E0004C7800503C80600F80443
:100A4000003804001800000804000807FFF807FF3A
:100A5000F804000800000800000800000800000872
:100A600000000800001800006000000004000807F3
:100A7000FFF807800807FC00007FC00003F80007AC
:100A8000C000780007800807FFF807FFF804000897
:100A900004000807FFF807000803C00000E000009A
:100AA0003800001E000007000001C00400F007FF2E
:100AB000F8040000000000007F8001FFE003807068
:100AC000060018040008040008060018030030019E
:100AD000FFE0007F8000000004000807FFF807FF28
:100AE000F8040408040400040400040400040400DE
:100AF000060C0003F80001F00000000000000000F8
:100B00007F8001FFE00380700600880400880400F5
:100B1000C806003C03003E01FFE6007F84000000A1
:100B200004000807FFF807FFF80408080408000499
:100B30000C00040F00040BC00610F003F03801E0B5
:100B40000800000800000001E0F803F03006301053
:100B5000041808041808040C08040C0802061802FB
:100B600007F00781E000000001800006000004009B
:100B70000004000004000807FFF807FFF80400085D
:100B800004000004000006000001800004000007CB
:100B9000FFE007FFF0040018000008000008000054
:100BA0000800000800000804001007FFE00400002F
:100BB00004000006000007E00007FE00041FE0003C
:100BC00001F80000380001E0043E0007C000060004
:100BD0000004000004000007E00007FFC0041FF845
:100BE0000007C007F80007FF80043FF80007C004B3
:100BF000F8000700000400000000000400080600E0
:100C00001807C07805F1C8003E00001F800463E8A3
:100C10000780F80600180400080000000400000621
:100C2000000007800007E008047C08001FF80007A8
:100C3000F800180804E0080700000600000400009F
:100C40000000000100080600380400F80403E8046E
:100C50000F08047C0805F00807C008070018040006
:100C60006000000000000000000000000000000024
:100C70000000003FFFFE20000220000220000220B2
:100C80000002200002000000000000000000080038
:100C90000007000000C0000038000006000001C08E
:100CA00000003000000E0000010000000000000005
:100CB000000020000220000220000220000220008C
:100CC000023FFFFE000000000000000000000000E6
:100CD00000000000000000000008000010000030CC
:100CE000000020000030000010000008000000009C
:100CF00000000000000001000001000001000001F0
:100D000000000100000100000100000100000100DE
:100D100000010000010000010000000000000000D0
:100D20000020000020000010000010000000000063
:100D300000000000000000000000000000000000B3
:100D400000F00019F8001B180022080026080024F3
:100D500008002410003FF8001FF8000008000018E9
:100D600000000004000007FFF80FFFF00018180053
:100D70001008002008002008003018001FF0000FA5
:100D8000C00000000000000007C0001FF000183085
:100D9000002008002008002008003C08001C10006B
:100DA00000600000000000000000000007C0001FFD
:100DB000F000381800200800200800200804101057
:100DC00007FFF80FFFF00000100000000000000017
:100DD00000000007C0001FF000123000221800229F
:100DE00008002208003208001E10000E200000003B
:100DF00000000000200000200800200801FFF80388
:100E0000FFF806200804200804200807200003003B
:100E10000000000000000000000E000E6E001FF336
:100E20000031B10020B10020B1003191001F13004A
:100E30002E1E00200E00300000000004000807FFF6
:100E4000F80FFFF800100800200000200000200824
:100E5000003FF8001FF8000008000000000000003C
:100E60000000002008002008002008063FF8063F88
:100E7000F800000800000800000800000000000062
:100E8000000000000000000003000003002001003B
:100E90002001002003063FFE063FFC00000000008A
:100EA0000000000000000004000807FFF80FFFF832
:100EB000000188000300002FC00038F8002038002F
:100EC00020080000080000000000000000000400EE
:100ED0000804000804000807FFF80FFFF8000008E6
:100EE00000000800000800000000000000200800CA
:100EF0003FF8003FF8001008002000003FF8003FD6
:100F0000F8001008002000003FF8003FF80000083B
:100F1000000000002008003FF8003FF80010080023
:100F20001000002000002008003FF8001FF800001B
:100F3000080000000000000007C0000FF00018309B
:100F40000030080020080020080030080018300099
:100F50000FF00007C0000000000000002001003F6B
:100F6000FF003FFF001011002009002008002008AA
:100F7000003038001FF0000FC0000000000000002B
:100F800007C0001FF00038180020080020080020CB
:100F900009001011001FFF003FFF000001000000CA
:100FA000002008002008002008003FF8003FF8005B
:100FB0000808001008002008002000003000003061
:100FC00000000000000000000000000C78001E1867
:100FD0000033080023080021080021880021980020
:100FE00030F0003860000000000000002000002009
:100FF0000000200000FFF003FFF800200800200898
:101000000020080000300000000000000000000088
:101010002000003FF0007FF80000180000080000EA
:1010200008002010003FF8007FF0000010000000D2
:10103000000000002000003000003C00003F800065
:1010400023F0000078000070002380003C00003096
:1010500000002000002000003C00003FE00023F8DA
:101060000000E0002700003E00003FE00021F80003
:1010700001E0003E000020000000000020080020E9
:1010800008003838003E680027800003C8002CF8AC
:101090000038380020180020080000000000000080
:1010A0002000003003003C01003F830023EC0000DF
:1010B00070002380003C00002000002000000000A1
:1010C0000000000000000038080020380020F80070
:1010D00023E8002F88003E08003808002018000090
:1010E0007000000000000000000000000000000090
:1010F0000000000008000014001FF7FC300006206C
:1011000000020000000000000000000000000000DD
:1011100000000000000000000000FFFFFF000000D2
:1011200000000000000000000000000000000000BF
:1011300000002000023000061FF7FC001400000829
:10114000000000000000000000000000000000009F
:101150000000001800006000004000004000002077
:1011600000001000000800000400000400000C0053
:10117000001000002DE9F04FA1B0824602AE002021
:1011800017461D46029170620DF144080AE017F8F7
:10119000011B0298D0470290002800F0D482706AA8
:1011A000401C7062387808B9706ACEE22528EED10A
:1011B0000020F06030617061B061F061306201E088
:1011C00040F0010017F8011F2029F9D023290DD084
:1011D0002B2904D02D2906D030290AD00CE040F06C
:1011E000020080B2EEE740F00400FAE740F00800A9
:1011F000F7E740F01000F4E72A290DD129680A1D0D
:101200002A600968F162002904D5494240F00400CF
:10121000F16280B27F1C13E00021F1620BE0F16A01
:101220006FF00043994205D001EB810302EB4301CB
:101230003039F1627F1C3A78A2F130010A29EED3ED
:1012400039782E2903D04FF0FF31B1621EE017F834
:10125000011F2A2906D129680A1D2A607F1C0968F6
:10126000B16213E00021B1620BE0B16A6FF000439C
:10127000994205D001EB810302EB43013039B162A1
:101280007F1C3A78A2F130010A29EED330860FF69E
:10129000AC20397800F070FD08B117F8010B8DF81B
:1012A0003A009DF83A00682802BF39786829622020
:1012B00005D06C2804BF38786C2803D171208DF8D4
:1012C0003A007F1C11A8B0603978B1F1250023D015
:1012D0002038022840F2B980133800F0E1800B3842
:1012E00000F07781401E00F02081401E022840F26D
:1012F000AC80001F00F01981401F7BD0401E00F021
:10130000CF80401E22D0C01E0BD0801E00F0C880AF
:10131000C01E00F0C58064E1F068411CF160252129
:1013200069E12868011D29600068B26A7060002ABE
:1013300002D500F02DFD07E0002100F045FD00285A
:101340001ABF7168401AB06A306156E12868011D01
:10135000296000210068CDE900014FF03C0E11A882
:101360007060DDE9000111B908B9B26ACAB10206BC
:10137000120FA0EB02123032AEF10103D2B29E4640
:101380003A2AA8BF2732000903F8082040EA017072
:10139000090908BF002804D0726811AB73449A424F
:1013A000E5D311A971447160CEF13C00B16A30619E
:1013B000884207DA081AB0614FF6EF71308E0840A4
:1013C00030861AE1002940F1188196F8301001F0BA
:1013D0001401102940F01181F16AF268891AB2698A
:1013E000891AA1EB000EBEF1010FC0F20681C6F80A
:1013F00018E002E19DF83A00622818D0682806D06B
:101400006A280BD06C2819D0712807D016E02868FC
:10141000011D29600068716A0180EEE02A68101DD4
:1014200028601268706AC117C2E90001E5E0286807
:10143000011D29600068716A0170DEE02868011DE5
:1014400029600068716A0160D7E02868C01D20F03B
:101450000700286000F108022A60D0E90023CDE9E6
:101460000023002B04D5F068421CF2602D220DE011
:10147000308E820704D5F068421CF2602B2205E012
:10148000C00705D5F068421CF260202200F8082051
:10149000F06811AA8018706000A800F0DDF9ACE0D7
:1014A0009DF83A006C2808BF2A6811D0712808BF3F
:1014B0002A6802D02A686A280AD1D21D22F00702BF
:1014C0002A60144604F108022A60D4E9002303E0EC
:1014D000131D2B6000231268CDE90023682808BF84
:1014E00092B207D0622808BFD2B203D0742818BFC6
:1014F0007A2802D10023CDE9002396F830000007B6
:101500005FD5DDE90023002B08BF002A59D041F048
:101510002000782855D1F068302200F80820401CBF
:10152000421CF26000F808104BE09DF83A00622877
:101530000CD0682810D06A281AD06C2823D07128C3
:1015400016D074281FD07A280CD01CE02868021D01
:101550002A6090F900201AE02868021D2A60B0F97C
:10156000002014E02868021D2A60002302680FE0B2
:101570002868C01D20F00700286000F108022A60DA
:10158000D0E9002304E02868021D2A600268D3170E
:10159000CDE90023002B04DAF068421CF2602D2212
:1015A0000DE0308E820704D5F068421CF2602B22D9
:1015B00005E0C00705D5F068421CF260202200F863
:1015C0000820F06811AA8018706000A800F0C0F828
:1015D00013E0F068411CF16029680A1D2A6009685F
:1015E00009E0F068421CF260252200F8082021B1D1
:1015F000F068421CF26000F80810F06AF168401AC6
:10160000B169401A3169401AF169401A7169401A8A
:10161000316AA0EB010996F830007F1C400710D416
:1016200020208DF84000002409E0012310AA00A921
:10163000504600F06BFB002840F08580641C4C4550
:10164000F3DBF4680DF1440B0AE01BF8011B029870
:10165000D0470290002876D0706A401C7062641EE9
:10166000002CF2D130208DF840004FF0000BB4690F
:1016700009E0012310AA00A9504600F047FB00280A
:1016800061D10BF1010BA345F3DB3469D6F804B04B
:101690000AE01BF8011B0298D0470290002852D0A4
:1016A000706A401C7062641E002CF2D130208DF8EC
:1016B00040004FF0000BF46909E0012310AA00A9D3
:1016C000504600F023FB00283DD10BF1010BA34550
:1016D000F3DB30697168746900EB010B09E01BF8FA
:1016E000011B0298D047029068B3706A401C706278
:1016F000641E002CF3D130208DF840004FF0000B19
:10170000346A08E0012310AA00A9504600F0FEFA4E
:10171000C8B90BF1010BA345F4DB96F83000400784
:101720007FF540AD20208DF84000002400E0641CCF
:101730004C45BFF637AD012310AA00A9504600F072
:10174000E5FA0028F3D04FF0FF3021B0BDE8F08F6C
:101750002DE9FA4E05460A462F696F2A08BF08246C
:1017600005D041F02000782814BF0A241024D5E9C0
:1017700000013C2681468B46642A18BF692A05D1A0
:10178000002903DAD9F100096BEB4B0BBBF1000F19
:1017900008BFB9F1000F0CD1286B50B9082C36D115
:1017A00095F83800000732D530203B2687F83B00FB
:1017B0002DE0E31748465946224600F031FBA4FBD2
:1017C0000023A9EB02023032A6F1010AD2B256463A
:1017D0003A2A03DB9DF80030513B9A180AF807209B
:1017E00081465FEA010B08BFB9F1000F03D0E8683A
:1017F000F1198842DDD3082C09D195F8380000078B
:1018000005D5F05D302802D0761E3020F055C6F1A7
:101810003C00A861F119E960296B884208DA081ACE
:1018200028624FF6EF71288F08402887BDE8F38EB5
:1018300000290ED595F8381001F01401102908D1AF
:10184000696B6A69891A2A6A891A081A0128A8BF65
:101850002862BDE8F38E00002DE9F34F8BB0D0E98C
:101860000089006B01AF002848BF062005D404BFE3
:1018700041F02000672802D101200B99086340F253
:10188000FF720B984168C1F30A50904220D10803BF
:1018900002BF0B98006800280AD10B9903208861C9
:1018A0009DF8300061381A2858D30FF2A44109E09E
:1018B0000B99032088619DF8300061381A284AD3BB
:1018C0000FF284410B98C068032200F021FB00E175
:1018D000012807DA0B9800F056FB012802DB0023F1
:1018E0000026EDE00B9A526840F2FE3161F31E5281
:1018F0000B994A6040F2FE31461A404649460022A2
:10190000002300F061FB38BF89F0004936B247F28E
:10191000975070434949DFF828B190FBF1F636B291
:10192000C6F107079246012F1BDBF80707D5524681
:101930005B464046494600F05FFB804689467F1083
:101940005046594652465B4600F056FB82468B464F
:10195000002FEAD126E00FF2EC31B3E70FF2EC31C1
:10196000B0E77F420024374D12E0F80707D5524612
:101970005B462046294600F03FFB04460D467F109B
:101980005046594652465B4600F036FB82468B462F
:10199000002FEAD14046494622462B4600F0FEFB86
:1019A000804689469DF8300040F02005662D0CBF2A
:1019B00006F10A0006200B99096B4718142FA8BFDF
:1019C000132730208DF804000DF10504DFF878B0FE
:1019D000012F3BDB4046494600F004FD014604F17F
:1019E000080204234FF00A0CB1FBFCFC0CEB8C0446
:1019F000A1EB4401303102F8011D0A21BCFBF1FECC
:101A00000EEB8E04ACEB44043034714602F8014D09
:101A10005B1EE7D1083F02F10804012FD8DB00F07C
:101A2000F7FC02460B464046494600F0FFFC002208
:101A30005B4600F0E1FA80468946CBE7A0860100CC
:101A4000000024400000F03F84D797410DF10500CD
:101A5000201A0DF1050702E0401E761E7F1C397822
:101A60003029F9D0662D02D136B2711C03E0652D04
:101A70000CBF012100210B9A126B8B181BB29842EC
:101A8000B8BF03461BB219001AD4814204DAC85DFC
:101A90003528A8BF392000DA3020CA19521E00E0CC
:101AA0005B1E12F80159491E8542F9D0392802D12E
:101AB000C85D401CC855002902D57F1E5B1C761CE2
:101AC00036B29DF830100B9800961BB23A4600F0E3
:101AD00003F80DB0BDE8F08F2DE9F04786B006465B
:101AE0008A4690461D4600F07EFD406A376B90F8AE
:101AF0000090012D02DA01250FF258284AF020004B
:101B0000BDF93840662808BF641C13D0672840F030
:101B1000878014F1040F72DBBC4270DA96F838004B
:101B2000641C000702D4BD42B8BF2F4624B23F1B3D
:101B300048BF0027F068B16924B2012C21DA3023B4
:101B40004A1C0B54012F03DA96F83810090702D506
:101B500002F80090521CB261E742B8BF7C4224B246
:101B60006142E7197162AF42B8BF3D462DB2F561DF
:101B70002A46B3694146181800F0CAF9781BB062CA
:101B8000ADE00818A54216DA2A46414600F0C0F931
:101B9000B1696918B161601B7062012F03DA96F8B0
:101BA0003800000705D5F06801F80090F069401C86
:101BB000F061B76293E02246414600F0A9F9B069AE
:101BC00020182D1B012F03DA96F83810090703D5CA
:101BD000F16800F80190401C2DB2B061AF42B8BF6F
:101BE0003D46F3682DB22A4604EB0801C01800F008
:101BF0008FF9B0692818B061781B70626FE0BD4240
:101C000004DA96F83810090758BF2F467F1E48BFE0
:101C10000027BAF1670F0CBF4FF0650A4FF0450A75
:101C2000B169F06818F8013B0B544A1C012F05DA22
:101C300096F83810090758BFB26115D502F8009020
:101C4000531CB361012F0FDB6D1E2DB2AF42B8BF25
:101C50003D462DB22A464146181800F059F9B069A0
:101C60002818B061781B7062B069F16800EB010858
:101C7000200008F801AB03D42B2008F8010B03E087
:101C80002D2108F8011B6442002502AF08E00A225A
:101C900000A800F0C1FC019807F8010B6D1C009C26
:101CA00021B20129F3DA022D06DA4AF02000652874
:101CB00004BF302008F8010B4DB9302008F8010BA3
:101CC00007E06D1E02A8285C303008F8010B012DDA
:101CD000F7DAB069F1684018A8EB0000F06196F8F7
:101CE000380000F0140010280DD17069B16908188F
:101CF000716A0818F1690818B16A0818716B88428E
:101D0000BCBF081A306206B0BDE8F087F8B50446DB
:101D10000D4616461F46002004E0E86A401CE862B3
:101D20007F1E002047B116F8011BA868A047A860D5
:101D30000028F2D14FF0FF30F2BD0000686A6C74E9
:101D40007A4C00006E616E004E414E00696E660076
:101D5000494E4600300050F8041B61B150F8042B86
:101D6000D30744BFA9F101039A18002342F8043BAA
:101D7000091FFAD1EFE770470278C9B28A421AB157
:101D80001CBF10F8012FF9E718BF002070470000B2
:101D900000F10103810704D010F8011B89B181070C
:101DA000FAD10268B2F10131914311F0803F04BFD2
:101DB00050F8042FF6E710F8011B11B110F8011BC1
:101DC000FBE7C01A70470000C9B2830706D0521E55
:101DD00022D310F8013B9942F7D11FE0083A13D300
:101DE00002F1040241EA012141EA014150F8043BB9
:101DF000121F21BF4B40A3F1013C2CEA030C1CF045
:101E0000803FF3D0C9B2001F083210F8013B521EC8
:101E100028BF91EA030FF8D818BF0120401E704771
:101E20001B4213D1094236D12AB18446B0FBF2F0ED
:101E300002FB10C2704700F0F7BBFCD30022002366
:101E400070470B000200002100207047904271EBA8
:101E5000030CF6D370B5B1FA81F4B3FA83F52C1BF9
:101E6000A340C4F1200532FA05F63343A2405FF0E7
:101E70000046E64002E05B085FEA3202841A71EB3A
:101E8000030524BF204629467641F4D302000B0007
:101E90003000002170BD012ACFD970B5140C20D0BC
:101EA000B1FA81F4B2FA82F5C4F120046419B4F1F4
:101EB0002006D6D3B2405FF00044F440002502E093
:101EC00052085FEA3303C61A71EB020E24BF304694
:101ED000714664416D41F3D302000B0020002900DC
:101EE00070BD0C46B1FBF2F102FB11452D0445EA31
:101EF0001045B5FBF2F402FB145580B240EA0545EB
:101F0000B5FBF2F002FB105240EA044070BD000045
:101F100062B38B0708D0521E11F8013B00F8013B59
:101F200000F024808B07F6D1830740F0208000BFAB
:101F3000103A07D330B4B1E83810103AA0E838109E
:101F4000F9D230BC530724BFB1E80810A0E808104C
:101F500044BF51F8043B40F8043BD20724BF31F89A
:101F6000022B20F8022B44BF0B7803707047083A0D
:101F700007D3B1E80810083A40F8043B40F804CB16
:101F8000F7D25307E4E730B4436803F0004201217D
:101F90001B031B0B436004BF0368002B08D10DE03B
:101FA0000368DD0F45EA440444605B000360491E9A
:101FB0004468E302F4D523031B0B436043681A43D0
:101FC0004260084630BC70474FF4001C1CEB410FC8
:101FD00094BF1CEB430F09E041EA030C50EA4C0CA0
:101FE00052EA0C0C03D2994208BF9042704714BFCA
:101FF0008B42824270470000B0B581EA030C0CF0BE
:10200000004C40F2FF7515EA11541DBF15EA135735
:10201000AC42AF4239E0E41923EA455343F480135C
:10202000C90241F0004141EA505EC7021100A7FB1E
:10203000020200284FF00000EEFB01204FF00001EB
:10204000E3FB072118BF42F001024018002149417B
:10205000E3FB0E01A4F580640F0302D2520040415D
:10206000494154F101046CDD470872F1004250F11E
:10207000000051EB0451A1F580115CBF41EA0C0155
:10208000B0BD4CEA05510020B0BD05EA1357AC4283
:1020900014BFAF4241E050EA410E1CBF52EA430E6A
:1020A00002E061460020B0BD24423C441BD15FEAFF
:1020B000070EF6D0090302BF01460020AEF1140E50
:1020C000B1FA81F7AEEB070401FA07FE0C37C7F14E
:1020D000200100FA07F7C8404EEA000E23EA4553F4
:1020E00043F48013A2E733F00043B3FA83F704BF4D
:1020F000B2FA82FE77440B3FE41BB7F1200E2FBFEC
:1021000002FA0EF3BB40C7F1200E22FA0EFE38BFD2
:1021100043EA0E03BA40641C82E750EA410E14BF42
:1021200052EA430E6FF000014FF4001717EB430F14
:102130008ABF194617EB410FB5E74CEA055100205D
:10214000B0BDD4F10104B4F120070FDAC4F12007C7
:10215000520828BF42F0010210FA07F501FA07F70A
:10216000E1BF2A43E0403843E1400FE0352C98DCE2
:10217000C7F1200452EA400220FA07F218BF42F0E9
:10218000010231FA07F0A1400A43002172F1004236
:1021900050F1000051EB0C01B0BD0000F0B540F271
:1021A000FF7581EA030C0CF0004C15EA11541DBFB9
:1021B00015EA1357AC42AF42E5E0BC41C1F313014D
:1021C000C3F31303801A994143F4801304D2641EAD
:1021D0004000494180185941C90241EA5051B1FBC0
:1021E000F3F603FB1611A2FB0675D7EBC020A9413D
:1021F00002D2761E80185941C90241EA5051B1FB02
:10220000F3FE03FB1E11A2FB0E75D7EBC020A94104
:1022100003D2AEF1010E80185941890241EA905172
:10222000760546EA8E2EB1FBF3F603FB1611A2FBF0
:102230000675D7EB8020A94102D2761E801859413D
:10224000C90241EA50514EEA060EB1FBF3F603FB18
:102250001611A2FB0675D7EBC020A94102D2761E4B
:1022600080185941C90241EA5051B1FBF3F703FB11
:102270001711A2FB0735D3EBC020A94167F1000776
:102280000CBF004247F0010766F3D5274FEA1E3125
:10229000B80814F5806412DDBD0775F1004250EBFB
:1022A0000E5051EB045111F5801F5CBF41EA0C0147
:1022B000F0BD4CF07F6141F0E0410020F0BDBD0772
:1022C0006D0840EA0E5041F48011D4F10104B4F1DC
:1022D00020060ADAC4F120060200E04001FA06F303
:1022E000E1401843B24015430EE0342C13DCC6F134
:1022F000200445EA40056D0820FA06F2154321FA4C
:1023000006F0A1400D43002175F1004250F100009C
:1023100051EB0C01F0BD00205FEA0C01F0BDCFB91C
:1023200092185B41B3FA83F704BFB2FA82F6BF1981
:102330000B3FB7F120062FBF02FA06F3BB40C7F1EF
:10234000200622FA06F638BF3343BA401CB1E4191E
:10235000641E33E77F4231F00041B1FA81F404BFDB
:10236000B0FA80F6A4190B3CB4F120062FBF00FA96
:1023700006F1A140C4F1200620FA06F638BF314329
:10238000A0403C1B1AE7AC421ABF05EA1357AF4204
:1023900012E050EA41061CBF52EA4306BFE750EA8A
:1023A0004107304661461CBF41EA0551F0BD52EA83
:1023B000430C08BFC143F0BD00204FF4001616EBDC
:1023C000410F98BF16EB430F08BF16EB410F24BF18
:1023D000C14305E016EB430F0CBF61464CEA0551C3
:1023E000F0BD0000400D40EAC120490080F00D80A2
:1023F00040F00040490DA1F58061491C05D4D1F1A0
:102400001F0154BFC840C01770474FF0000070470D
:10241000010000BF09D0B0FA80F18840C91CC1F5A5
:102420008461090501EBD0214005704770B44FF07D
:10243000004591EA030F44BF6B4000F0F7B800BFBE
:10244000841A71EB030604D26E40001BB1411219CD
:1024500073414FF4001C1CEB410F34BF7CEB43066F
:1024600084E00C0DA4EB1356362E7DDC012E43DCEC
:1024700045EAC32343EA525312BFD20292025B08D9
:10248000240545EAC12141EA5051D2EBC0209941CF
:1024900025D407D1B0FA80F610FA06F164D00020F6
:1024A000203608E0B1FA81F6B140C6F1200220FAE8
:1024B00002F21143B0404FEAF474B4EB465434F0E6
:1024C00001064FEA74040AD8D6F50016760D04F01A
:1024D0000044F04061FA06F25040F1404840C00A22
:1024E00040EA415021F0004128BF5FEA500550F119
:1024F000000044EBD12137E045EAC323DB0A45EA7B
:10250000C121C90AB6F120050EDD42EA0242120CD1
:10251000C5F1200603FA06F6EB4042EA06056D42D5
:10252000984161F100010DE062FA06F5F240554074
:1025300063FA06FC82EA0C02F3405A406D42904175
:1025400061EB030111F4801F05D1641E620502D006
:102550006D004041494121F48011430875F1004369
:1025600050F1000041EB045170BC70471CEB410F6F
:1025700015D223F0004352EA43060BD04FEA4C0C2D
:10258000BCEB410F04D80C0D661E342EB7DDEBE713
:10259000801A994150EA410608BF0021E4E708BFCC
:1025A0001CEB430F28BF6FF00001DDE780B5134837
:1025B00000F0A6F80FF24801016041608160C1603F
:1025C0000161416181610FF23C0242628162C1623C
:1025D000016341630FF2300282630FF23402C2637F
:1025E0000164416401BD10B5044800F089F8044657
:1025F000206808B9FFF7DAFF204610BD1C12FF1F44
:10260000000000002E00000066616C736500000091
:10261000747275650000000091FBF2F303FB121168
:10262000C0E900317047000070470000841A71EB68
:10263000030603D2001BB141121973414FF4001C71
:102640001CEB410F34BF7CEB430443E00C0DA4EBC7
:102650001356352E50DC45EAC323DB0A45EAC12177
:10266000C912B6F120050DDD63FA05F6EB4086EAE6
:102670000305124218BF45F00105C01851F10001D1
:102680000CD213E062FA06F5F2405540F3415A408D
:10269000B340F3405A408018594107D349085FEAD4
:1026A00030005FEA350528BF45F0010501F58011CE
:1026B000420875F1004250F1000041EB045170BC3A
:1026C0004FF4001C1CEB410F38BF70470020090D70
:1026D000090570471CEB410F10D252EA43060BD09C
:1026E000BCEB410F05D80C0DAB43661E342EB5DD97
:1026F00002E0AB438018594170BC704770BC704712
:102700007047000000000000000000000000000012
:1027100000000000000000000000000000000000B9
:1027200000004E6F6E4D61736B61626C650000005E
:1027300000486172644661756C740000000000001E
:102740004D656D4D616E6167656D656E740000422B
:1027500075734661756C74000000000000005573CD
:102760006167654661756C74000000000000000040
:102770000000000000000000000000000000000059
:102780000000000000000000000000000000000049
:102790000000000000000000000000000000000039
:1027A000000000000000000000535643616C6C0004
:1027B000000000000000000044656275674D6F6E08
:1027C00069746F720000000000000000000000004B
:1027D00000000000000050656E64535600000000C9
:1027E00000000000005379735469636B000000001F
:1027F00000000000444D41300000000000000000D7
:10280000000000444D4131000000000000000000C5
:102810000000444D413200000000000000000000B4
:1028200000444D41330000000000000000000000A3
:10283000444D41340000000000000000000000444E
:102840004D41350000000000000000000000444D34
:1028500041360000000000000000000000444D412F
:10286000370000000000000000000000444D413827
:102870000000000000000000000000444D4139004D
:1028800000000000000000000000444D4131300015
:10289000000000000000000000444D413131000004
:1028A0000000000000000000444D413132000000F3
:1028B00000000000000000444D41313300000000E2
:1028C000000000000000444D4131340000000000D1
:1028D0000000000000444D413135000000000000C0
:1028E00000000000444D415F4572726F72000000AD
:1028F0000000004D434D00000000000000000000FB
:1029000000004654464C000000000000000000009B
:1029100000526561645F436F6C6C6973696F6E0030
:102920004C56445F4C565700000000000000004C1D
:102930004C5700000000000000000000000057613C
:10294000746368646F6700000000000000524E4727
:102950000000000000000000000000004932433089
:102960000000000000000000000000493243310078
:10297000000000000000000000005350493000003B
:10298000000000000000000000535049310000002A
:102990000000000000000000535049320000000019
:1029A0000000000000000043414E305F4F525F4D79
:1029B000425F6275660043414E305F4275735F4F00
:1029C000666600000043414E305F4572726F7200D0
:1029D0000000000043414E305F54785F5761726ED3
:1029E000696E6743414E305F52785F5761726E691E
:1029F0006E6743414E305F57616B655F55700000F5
:102A00000052657365727665643531000000000020
:102A100052657365727665643532000000000043CC
:102A2000414E315F4F525F4D425F627566004341D8
:102A30004E315F4275735F4F666600000043414E42
:102A4000315F4572726F72000000000043414E31E9
:102A50005F54785F5761726E696E6743414E315FB4
:102A600052785F5761726E696E6743414E315F57AE
:102A7000616B655F55700000005265736572766525
:102A80006435390000000000526573657276656434
:102A90003630000000000055415254305F52585FFC
:102AA00054580000000055415254305F45525200C6
:102AB000000000000055415254315F52585F545895
:102AC0000000000055415254315F45525200000051
:102AD00000000055415254325F52585F5458000074
:102AE000000055415254325F455252000000000030
:102AF0000055415254335F52585F54580000000053
:102B000055415254335F45525200000000000055B9
:102B1000415254345F52585F5458000000005541F0
:102B20005254345F4552520000000000005541529B
:102B300054355F52585F54580000000055415254BC
:102B4000355F455252000000000000414443300010
:102B5000000000000000000000004144433100007C
:102B6000000000000000000000434D503000000055
:102B70000000000000000000434D50310000000044
:102B800000000000000000434D5032000000000033
:102B900000000000000046544D300000000000001E
:102BA000000000000046544D31000000000000000D
:102BB0000000000046544D320000000000000000FC
:102BC000000000434D540000000000000000000021
:102BD000000052544300000000000000000000000C
:102BE000005265736572766564383300000000003A
:102BF0005049543000000000000000000000005068
:102C0000495431000000000000000000000050495D
:102C10005432000000000000000000000050495441
:102C2000330000000000000000000000504442306B
:102C3000000000000000000000000055534230007A
:102C400000000000000000000000555342444344CF
:102C5000000000000000000000454E45545F313583
:102C600038385F54696D6572454E45545F547261E2
:102C70006E736D69740000454E45545F526563651F
:102C8000697665000000454E45545F4572726F726B
:102C90000000000000493253300000000000000036
:102CA0000000000053444843000000000000000002
:102CB000000000444143300000000000000000001C
:102CC000000044414331000000000000000000000B
:102CD00000545349300000000000000000000000D4
:102CE0004D43470000000000000000000000004CC1
:102CF0005054696D657200000000000000005265CC
:102D000073657276656431303200000000504F52B6
:102D1000544100000000000000000000504F5254D9
:102D20004200000000000000000000504F525443D9
:102D300000000000000000000000504F525444000A
:102D4000000000000000000000504F5254450000F9
:102D50000000000000000000526573657276656433
:102D60003130380000000052657365727665643159
:102D70003039000000005265736572766564313148
:102D80003000000000526573657276656431313140
:102D9000000000005265736572766564313132005F
:102DA000000000526573657276656431313300004E
:102DB000000052657365727665643131340000003D
:102DC000005265736572766564313135000000002C
:102DD00052657365727665643131360000000052C9
:102DE00065736572766564313137000000005265A5
:102DF0007365727665643131380000000052657386
:102E000065727665643131390000000000F00F40D2
:102E100040F00F4080F00F40C0F00F4000F10F4035
:102E2000F0000A1D30001800320018016000181868
:102E30006400181A6E00181F780013187D00131A0A
:102E40008200131C8C000E1296000E15A0000E18A6
:102E5000AA000E1BB4000E1EC8000C1CE1000B1EC5
:102E6000FA000A1F000109080090044000A0044075
:102E700000B0044000C0044000D0044000A0064060
:102E800000B0064000C0064000D0064000A00E4042
:102E900000B00E406A6E6B6C676D4E4F343536373E
:102EA00002040101CC11FF1F1C12FF1FCC11FF1FD8
:102EB000CC11FF1FCC11FF1FE90BFF1FD00BFF1F11
:102EC0000000000000000000000000000000000002
:102ED00000000000000000000000000000000000F2
:102EE00000000000000000000000000000000000E2
:102EF0000000000000001FCC000C000000000000DB
:102F00000000080030006000080030006000000091
:102F1000022003FC1E20022003FC1E2002200000D1
:102F200000000E1811043FFF10840C780000000010
:102F30000F0010840F3800C0077818840078000054
:102F400000780F8410C411240E9800E40084000857
:102F50000800680070000000000000000000000091
:102F600000000000000007E01818200440020000E4
:102F7000000040022004181807E0000000000000D4
:102F80000240024001800FF0018002400240000038
:102F90000080008000800FF800800080008000002A
:102FA0000001000D000E0000000000000000000005
:102FB0000000008000800080008000800080008091
:102FC0000000000C000C00000000000000000000E9
:102FD00000000006001800600180060018002000B4
:102FE000000007F0080810041004080807F00000AB
:102FF0000000080408041FFC000400040000000096
:1030000000000E0C10141024104411840E0C00004B
:1030100000000C1810041104110412880C70000038
:10302000000000E00320042408241FFC002400000A
:1030300000001F9810841104110410881070000003
:10304000000007F0088811041104188800700000BF
:1030500000001C00100010FC13001C0010000000F9
:1030600000000E3811441084108411440E38000002
:1030700000000700088C10441044088807F0000086
:10308000000000000000030C030C00000000000022
:103090000000000000010106000000000000000028
:1030A0000000008001400220041008081004000005
:1030B0000220022002200220022002200220000022
:1030C00000001004080804100220014000800000E5
:1030D00000000E001200100C106C10800F00000099
:1030E00003E00C1813E4142417C4082807D00000C8
:1030F0000004003C03C41C40074000E4001C000422
:1031000010041FFC1104110411040E88007000004B
:1031100003E00C1810041004100410081C10000028
:1031200010041FFC100410041004080807F000002D
:1031300010041FFC1104110417C410040818000027
:1031400010041FFC1104110017C01000080000003B
:1031500003E00C181004100410441C780040000018
:1031600010041FFC10840080008010841FFC1004D9
:103170000000100410041FFC1004100400000000E4
:1031800000030001100110011FFE100010000000DC
:1031900010041FFC110403801464181C10040000A8
:1031A00010041FFC1004000400040004000C0000C4
:1031B00010041FFC1F0000FC1F001FFC1004000077
:1031C00010041FFC0C04030000E010181FFC10008A
:1031D00007F00808100410041004080807F00000A5
:1031E00010041FFC10841080108010800F0000005D
:1031F00007F0081810241024101C080A07F2000019
:1032000010041FFC1104110011C011300E0C000439
:1032100000000E1C11041084108410441C3800009F
:103220001800100010041FFC10041000180000000B
:1032300010001FF810040004000410041FF8100010
:1032400010001E0011E0001C007013801C00100014
:103250001FC0103C00E01F0000E0103C1FC0000039
:103260001004180C163401C001C01634180C1004D8
:1032700010001C00130400FC13041C0010000000CC
:103280000804101C1064108413041C04101800009F
:103290000000000000007FFE4002400240020000EB
:1032A000000030000C0003800060001C00030000E0
:1032B00000004002400240027FFE000000000000CB
:1032C00000000000200040004000400020000000FE
:1032D00000010001000100010001000100010001E6
:1032E000000040004000200000000000000000003E
:1032F00000000098012401440144014400FC000442
:1033000010001FFC00880104010400880070000008
:10331000000000700088010401040104008800001E
:103320000000007000880104010411081FFC000463
:10333000000000F8014401440144014400C80000B9
:103340000000010401040FFC110411041100180015
:10335000000000D601290129012901C90106000048
:1033600010041FFC008401000100010400FC0004A3
:1033700000000104190419FC00040004000000000E
:103380000000000300010101190119FE0000000006
:1033900010041FFC0024004001B4010C01040000D3
:1033A0000000100410041FFC0004000400000000D2
:1033B000010401FC0104010001FC0104010000FC06
:1033C000010401FC008401000100010400FC000470
:1033D000000000F8010401040104010400F80000E9
:1033E000010101FF00850104010400880070000054
:1033F00000000070008801040104010501FF0001C4
:103400000104010401FC00840104010001800000AA
:10341000000000CC012401240124012401980000B3
:1034200000000100010007F8010401040000000091
:10343000010001F8000400040004010801FC00047C
:10344000010001800170000C00100160018001008A
:1034500001F0010C003001C00030010C01F001004E
:1034600000000104018C00740170018C0104000053
:10347000010101810171000E00180160018001004D
:1034800000000184010C013401440184010C00009E
:10349000000000000000000001003EFC400240026D
:1034A0000000000000000000FFFF0000000000001E
:1034B0000000400240023EFC01000000000000004D
:1034C00000006000800080004000400020002000DC
:1034D00038B500200400E4B2082C20DA0021B4F151
:1034E0005000C0B200F01CF80021002000F018F8D5
:1034F0000021102000F014F800200500EDB2802D0E
:103500000BDA0121E4B2EDB2DFF8C40410EBC50020
:10351000205C00F005F86D1CF0E7641CDBE731BDB2
:1035200010B4C9B2DFF8AC3419600023DFF8A84446
:10353000236000231A00D2B2082A15DA0023DFF82C
:103540009C442360030604D50123DFF894442360E0
:1035500003E00023DFF8884423600123DFF87C4484
:1035600023604000521CE6E70123DFF86C4423602F
:103570000123DFF86044236010BC704738B5002099
:103580000400E4B2082C10DA00200500EDB2802D12
:1035900009DAE4B2EDB2DFF8380410EBC50000211F
:1035A00021546D1CF2E7641CEBE7FFF791FF31BD7E
:1035B000F0B40025C0B2802802DAC9B2402900DB8D
:1035C00034E0C9B2082691FBF6F6D6F107063300BF
:1035D000C9B2082691FBF6F707FB16173C00012637
:1035E000D4F10707BE403500D2B2002A0FD0DBB2BB
:1035F000C0B2DFF8DC6316EBC006DBB2C0B2DFF8A6
:10360000D07317EBC007DF5D2F439F550EE0DBB291
:10361000C0B2DFF8BC6316EBC006DBB2C0B2DFF8A5
:10362000B07317EBC007DF5DAF439F55F0BC704729
:103630002DE9F84F05000E00170098460A9C8DF8FA
:1036400000605FFA88F8082098FBF0F101FB108118
:10365000002901D0012000E000205FFA88F808214D
:1036600098FBF1F140185FFA88F8022198FBF1F11C
:1036700048438DF80100203F002082469DF801005C
:103680005FFA8AFA824568D25FFA88F8B8F10C0FBF
:103690000BD15FFA8AFAFFB20C20DFF8481300FB67
:1036A00007101AF80000814621E05FFA88F8B8F1A7
:1036B000100F0AD15FFA8AFAFFB2DFF82C0310EB81
:1036C00007101AF80000814611E05FFA88F8B8F197
:1036D000180F0BD15FFA8AFAFFB22420DFF80C131F
:1036E00000FB07101AF80000814600E035E00020DA
:1036F00083465FFA8BFBBBF1080F2BDA5FEA0960A8
:1037000008D52200D2B23100C9B22800C0B2FFF7FA
:103710004FFF0CE0E4B2002C01D1012200E00022B6
:10372000D2B23100C9B22800C0B2FFF741FF5FEA50
:103730004909761CF6B29DF80000301A5FFA88F845
:10374000404504D19DF8000006006D1C02E01BF10D
:10375000010BCEE71AF1010A90E7BDE8F18F0200F4
:1037600001200B00591EDBB2002B02D0D2B2504315
:10377000F7E770472DE9F04F83B006008B4617003E
:1037800098460C9C0D9D5FF0000A002081465FFA70
:1037900089F95FFA88F8C1456AD2B8EB0900411E81
:1037A000C9B20A20FFF7DBFFB7FBF0F00A21B0FB3C
:1037B000F1F201FB12008DF804005FFA8AFABAF107
:1037C000000F3AD15FFA89F95FFA88F8B8F1010081
:1037D000814532DA9DF8040000282CD1EDB2012D8C
:1037E00014D1002000902300DBB230225946C9B228
:1037F000E4B2022094FBF0F05FFA89F909FB00F0D3
:1038000050FA86F0C0B2FFF713FF13E000200090DB
:103810002300DBB220225946C9B2E4B2022094FB55
:10382000F0F05FFA89F909FB00F050FA86F0C0B2B7
:10383000FFF7FEFE19E001208246002000902300E1
:10384000DBB29DF8040010F13002D2B25946C9B281
:10385000E4B2022094FBF0F05FFA89F909FB00F072
:1038600050FA86F0C0B2FFF7E3FE19F101098EE7C6
:10387000BDE8F78F80B501220121092000F0BCF8D6
:1038800001220121072000F0B7F8012201210820C0
:1038900000F0B2F801220121052000F0ADF801226C
:1038A0000121062000F0A8F87FF02001092000F097
:1038B00059F97FF02001072000F054F97FF0200132
:1038C000082000F04FF97FF02001052000F04AF9B0
:1038D0007FF02001062000F045F901203E490860F4
:1038E00001203C49086000204149086041480068C7
:1038F000642101FB00F1032000F06AF901203C493A
:1039000008600021AE20FFF70BFE0021D520FFF755
:1039100007FE00215020FFF703FE0021A820FFF73B
:10392000FFFD00213F20FFF7FBFD0021D320FFF723
:10393000F7FD00210020FFF7F3FD00214020FFF7F5
:10394000EFFD00218D20FFF7EBFD00211420FFF794
:10395000E7FD00212020FFF7E3FD00210220FFF713
:10396000DFFD0021A120FFF7DBFD0021C020FFF7D4
:10397000D7FD0021DA20FFF7D3FD00211220FFF749
:10398000CFFD00218120FFF7CBFD0021EF20FFF7C5
:10399000C7FD0021D920FFF7C3FD0021F120FFF76B
:1039A000BFFD0021DB20FFF7BBFD00213020FFF72A
:1039B000B7FD0021A420FFF7B3FD0021A620FFF7EB
:1039C000AFFD0021AF20FFF7ABFDFFF7D7FD01BD35
:1039D000C00DFF1F2000FE432400FE431400FE43E1
:1039E0001800FE43B0410000E02E00001804000063
:1039F0001C00FE43C811FF1F70B504000D00160027
:103A00004FF480712000C0B200F08AF86DB2002D32
:103A100011D1E4B26011404951F82000E4B26111C3
:103A20003D4A52F821104969012214F01F039A40BF
:103A30009143416136E0E4B26011374951F820000A
:103A4000E4B26111344A52F821104969012214F09C
:103A50001F039A4011434161F6B2002E11D1E4B226
:103A600060112D4951F820000068012114F01F0257
:103A700091408843E4B26111274A52F8211008604E
:103A800010E0E4B26011244951F8200000680121DF
:103A900014F01F0291400843E4B261111E4A52F82B
:103AA0002110086070BD10B50400E4B260111A491D
:103AB00051F82000406914F01F01C840C00703D42A
:103AC0007B21164800F0F9F8E4B26011124951F870
:103AD0002000012114F01F029140C16010BD10B5FB
:103AE0000400E4B260110C4951F82000406914F060
:103AF0001F01C840C00703D58C21084800F0DDF83D
:103B0000E4B26011044951F82000006914F01F016B
:103B1000C84010F0010010BD180BFF1FE84D000059
:103B200010B4294A12684FF40073C0B24409A3408C
:103B30001A43254B1A60C0B24211244B53F822207D
:103B4000012310F01F04A340C2F8A030C0B210F04F
:103B50001F02C0B243111D4C54F8233043F8221009
:103B600010BC704710B4184A12684FF40073C0B20A
:103B70004409A3401A43144B1A60C0B24211134BBC
:103B800053F82220012310F01F04A340C2F8A030F4
:103B900031F4E061C0B210F01F02C0B243110B4C0F
:103BA00054F8233053F8222012F4E0621143C0B2DB
:103BB00010F01F02C0B24311044C54F8233043F8F4
:103BC000221010BC7047000038800440740BFF1FA7
:103BD00038B504000D00002D03D14521284800F020
:103BE0006CF82848006850F4000026490860264810
:103BF0000068800880002449086064B2234810EB04
:103C0000041080684008400064B2204911EB0411A0
:103C10008860681E64B221011C4A885064B21B4847
:103C200010EB0410C06850F0010064B2174911EBAA
:103C30000411C86064B2154810EB04108068400895
:103C4000400064B2114911EB04118860012064B294
:103C50000E4911EB0411886064B20C4810EB04109B
:103C6000C068C007F8D564B2084810EB0410C068FB
:103C700050F0010064B2054911EB0411C86031BD78
:103C8000204E00003C80044000700340007103405F
:103C9000DFF800F01D0CFF1FDFF800F0570CFF1FCE
:103CA000BFF34F8F5548006810F4E0605449084353
:103CB00052490860BFF34F8FFEE738B504000D008E
:103CC000002000F0ADF82A0021004E4800F0E0F896
:103CD000002000F0C2F84C4800684FF47A7101FBF4
:103CE00000F10320FFF774FFEDE738B504000D0085
:103CF000210049B2032000F0EDF9200032BD10B5DB
:103D00000024042000F000FA042000F033FA002818
:103D100055D1002000F084F8042000F02BFA01288F
:103D200001D101200400002000F097F8374800F08E
:103D3000AFF8354800684FF4FA7101FB00F1032039
:103D4000FFF746FFE4B2012CE6D1042000F012FA9E
:103D50000028E1D1042000F00DFA00280BD100204A
:103D600000F07BF828480068642101FB00F1032083
:103D7000FFF72EFFEEE7042000F0FCF901280BD13D
:103D8000002000F06AF820480068322101FB00F1B1
:103D90000320FFF71DFFEEE71D4800F079F8FFF75D
:103DA00077FF19480068642101FB00F10320FFF749
:103DB0000FFF0020FFF770FFFFF772FFACE710BDA9
:103DC00010B514480468012000F02AF8012000F022
:103DD00044F8E4B20F20104900FB0412E4B22100C1
:103DE0000E4800F055F8084800684FF47A7101FB5E
:103DF00000F10320FFF7ECFEE8E700000CED00E027
:103E00000400FA05EC4E0000C811FF1FA04F00008F
:103E1000204F000004ED00E01004FF1F744D00006F
:103E200010B5040064B2042C07DA0122012164B247
:103E30001648205CFFF7E0FD0EE00420040020009F
:103E4000441E40B2002807D00122012164B20F486D
:103E5000205CFFF7D1FDF2E710BD10B5040064B29D
:103E6000042C05DA64B20948205CFFF71CFE0CE064
:103E7000042004002000441E40B2002805D064B293
:103E80000248205CFFF70FFEF4E710BDA80BFF1FF0
:103E90000EB400B582B003A90091024600AB012127
:103EA000034878440A30FDF765F906BC5DF810FB5D
:103EB000CD1000002DE9F84304000D0064B2002C81
:103EC00008D0022C2CD018D3042C4FD03BD3052C77
:103ED0005FD071E0DFF81802006850F48060DFF80E
:103EE000101208604FF440716620FFF719FE4FF47E
:103EF00040716720FFF714FE5EE0DFF8F401006810
:103F000050F40060DFF8E81108604FF4407143207E
:103F1000FFF706FE4FF440714420FFF701FE4BE02F
:103F2000DFF8CC01006850F48050DFF8C41108605D
:103F30004FF440716320FFF7F3FD4FF440716220AE
:103F4000FFF7EEFD38E0DFF8A801006850F40050FC
:103F5000DFF89C1108604FF440715020FFF7E0FD3E
:103F60004FF440715120FFF7DBFD25E0DFF88401BD
:103F7000006850F48060DFF87C1108604FF44071F5
:103F80004E20FFF7CDFD4FF440714F20FFF7C8FDE5
:103F900012E0DFF86001006850F40060DFF85411AF
:103FA00008604FF440718920FFF7BAFD4FF440716B
:103FB0008820FFF7B5FDFFE764B2DFF83C0150F859
:103FC0002400C07810F0F30064B2DFF82C1151F82F
:103FD0002410C87064B2DFF8200150F82400807803
:103FE00064B2DFF8141151F82410887064B2002C08
:103FF00002D064B2012C07D1DFF8000100684FF451
:104000007A714843814606E0DFF8F40000684FF417
:104010007A71484381462801B9FBF0F00600B6B238
:10402000B6F5005F02DB41F6FF700600B9FBF5F064
:10403000B6B2B0EB06100700BFB2202F04DBDC21C4
:10404000DFF8C000FFF739FE64B2DFF8AC0050F8CB
:104050002400007810F0E0008046B6B2300A10F07C
:104060001F0050EA080064B2DFF88C1051F82410E9
:10407000087064B2DFF8800050F82400467064B223
:104080001D4850F82400807A10F0E000804617F0B8
:104090001F0050EA080064B2174951F824108872D2
:1040A00064B2154850F82400007C50F0880064B2D7
:1040B000114951F82410087464B20F4850F82400D4
:1040C000C07850F00C0064B20B4951F82410C8704D
:1040D000BDE8F18340B2084A52F820201279120656
:1040E000F8D540B2044A52F82020D1717047000040
:1040F0003480044028800440880BFF1FC011FF1F3C
:10410000C811FF1F584E000010B5040064B2082CFF
:104110000DDA0022002164B22348205CFFF76CFC1A
:10412000032164B22048205CFFF71CFD14E0082046
:1041300004002000441E40B200280DD000220021BF
:1041400064B21948205CFFF757FC032164B216489B
:10415000205CFFF707FDECE710BD10B5040064B26A
:104160001148205CFFF7BBFC002801D1002000E0D3
:10417000012010BD10B50400200040B2FFF7EDFF94
:1041800000280FD1094800680A2101FB00F1032033
:10419000FFF71EFD200040B2FFF7DFFF002801D12E
:1041A000002000E0012010BDA00BFF1FC811FF1F61
:1041B00000000000000000000000000000000000FF
:1041C0003F400000000000000000300040003000D0
:1041D0004000000009000BC03D000BC03D0009007D
:1041E00018C024407FE0224031800000180024C025
:1041F0001B000D803240018003801C4027401C8042
:1042000007400040100060000000000000000000B7
:104210000000000000001F802040402000004020DF
:1042200020401F8000000000090006001F800600DB
:1042300009000000040004003F80040004000000A6
:1042400000100060000000000000000004000400F6
:104250000400040004000000000000400000000012
:1042600000000000002001C00600380040000000EF
:104270001F802040204020401F8000000000104090
:104280003FC000400000000018C0214022402440F0
:104290001840000010802040244024401B80000073
:1042A00002000D0011003FC0014000003C8024408E
:1042B00024402440238000001F80244024403440B8
:1042C000038000003000200027C0380020000000DC
:1042D0001B802440244024401B8000001C0022C07E
:1042E000224022401F800000000000000840000023
:1042F000000000000000000004600000000000005A
:10430000000004000A00110020804040090009005C
:104310000900090009000000000040402080110051
:104320000A000400180020002340240018000000A8
:104330001F802040274029401F400000004007C048
:1043400039000F0001C0004020403FC024402440FD
:104350001B8000001F802040204020403080000053
:1043600020403FC0204020401F80000020403FC030
:1043700024402E4030C0000020403FC024402E008A
:10438000300000000F0010802040224033800200E7
:1043900020403FC0040004003FC020402040204097
:1043A0003FC02040204000000060202020203FC06F
:1043B0002000200020403FC024400B0030C020409F
:1043C00020403FC020400040004000C03FC03C00B3
:1043D00003C03C003FC0000020403FC00C40230011
:1043E0003FC020001F802040204020401F80000050
:1043F00020403FC024402400180000001F802140BE
:10440000214020E01FA0000020403FC024402600A3
:1044100019C0004018C024402440224031800000D0
:10442000300020403FC020403000000020003F808E
:10443000004000403F80200020003E0001C00700F7
:1044400038002000380007C03C0007C038000000DA
:10445000204039C0060039C020400000200038400C
:1044600007C0384020000000304021C026403840BE
:1044700020C00000000000007FE04020402000003D
:10448000000070000C00038000400000000040208D
:1044900040207FE0000000000000200040002000DD
:1044A00000000000001000100010001000100010AC
:1044B000000000004000000000000000000002803A
:1044C0000540054003C0004020003FC004400440B8
:1044D0000380000000000380044004400640000008
:1044E00000000380044024403FC0004000000380DF
:1044F0000540054003400000000004401FC0244068
:1045000024402000000002E0055005500650042021
:1045100020403FC00440040003C0004000000440AD
:1045200027C000400000000000100010041027E029
:104530000000000020403FC00140070004C00440CC
:10454000204020403FC000400040000007C0040061
:1045500007C0040003C00000044007C0044004007A
:1045600003C00040000003800440044003800000BA
:10457000041007F004500440038000000000038092
:104580000440045007F00010044007C0024004003B
:1045900004000000000006400540054004C0000083
:1045A000000004001F800440004000000400078059
:1045B0000040044007C000400400070004C0018020
:1045C00006000400060001C0070001C0060000004C
:1045D000044006C0010006C004400000041007109B
:1045E00004E00180060004000000044005C006400D
:1045F000044000000000000004007BE040200000B8
:10460000000000000000FFF000000000000040205B
:104610007BE004000000000040008000400020001B
:1046200020004000DFF800F0710DFF1F40B2DFF8FE
:10463000941331F8201040B20128C0F2698140B2D1
:10464000112880F265810022DFF87C331A7089B26C
:10465000312904DA0022DFF870335A7076E089B22B
:10466000612904DA0122DFF860335A706EE089B202
:10467000912904DA0222DFF850335A7066E089B2D9
:10468000C12904DA0322DFF840335A705EE089B2B0
:10469000F12904DA0422DFF830335A7056E089B287
:1046A000B1F5907F04DC0522DFF81C335A704DE031
:1046B00089B2B1F5A87F04DC0622DFF80C335A700A
:1046C00044E089B2B1F5C07F04DC0722DFF8F8329C
:1046D0005A703BE089B2B1F5D87F04DC0822DFF8DC
:1046E000E8325A7032E089B2B1F5F07F03DC09227A
:1046F000B54B5A702AE089B2B1F5047F03DC0A2277
:10470000B14B5A7022E089B2B1F5107F03DC0B2265
:10471000AD4B5A701AE089B2B1F51C7F03DC0C2254
:10472000A94B5A7012E089B2B1F5287F03DC0D2243
:10473000A54B5A700AE089B2B1F5347F03DC0E2232
:10474000A14B5A7002E00F229F4B5A7089B21A296E
:1047500003DA00229C4B9A7069E089B2332903DAAC
:104760000122994B9A7062E089B24C2903DA022245
:10477000954B9A705BE089B2652903DA0322924B6C
:104780009A7054E089B27E2903DA04228E4B9A7023
:104790004DE089B2972903DA05228B4B9A7046E0E7
:1047A00089B2B02903DA0622874B9A703FE089B2BA
:1047B000C92903DA0722844B9A7038E089B2E229CA
:1047C00003DA0822804B9A7031E089B2FB2903DAC0
:1047D00009227D4B9A702AE089B2B1F58A7F03DA0B
:1047E0000A22794B9A7022E089B2B1F5967F03DCF8
:1047F0000B22754B9A701AE089B2B1F5A37F03DAE8
:104800000C22714B9A7012E089B2B1F5AF7F03DCD4
:104810000D226D4B9A700AE089B2B1F5BC7F03DAC4
:104820000E22694B9A7002E00F22674B9A7089B290
:104830001A2903DA0022644BDA7069E089B233295D
:1048400003DA0122604BDA7062E089B24C2903DAA4
:1048500002225D4BDA705BE089B2652903DA03223C
:10486000594BDA7054E089B27E2903DA0422564BA0
:10487000DA704DE089B2972903DA0522524BDA70DB
:1048800046E089B2B02903DA06224F4BDA703FE0E6
:1048900089B2C92903DA07224B4BDA7038E089B2B2
:1048A000E22903DA0822484BDA7031E089B2FB29A9
:1048B00003DA0922444BDA702AE089B2B1F58A7F23
:1048C00003DA0A22404BDA7022E089B2B1F5967F12
:1048D00003DC0B223C4BDA701AE089B2B1F5A37FFE
:1048E00003DA0C22384BDA7012E089B2B1F5AF7FEF
:1048F00003DC0D22344BDA700AE089B2B1F5BC7FDB
:1049000003DA0E22304BDA7002E00F222E4BDA70FF
:10491000704710B50400200040B2FFF787FE2B4817
:10492000007810F0FD00294908702848007850F000
:10493000100026490870B8202549087025480078DD
:10494000C006FBD423480078C0F38100C0B202281F
:10495000F8D11D48C3781C4882781B4841781A4812
:104960000078FFF75FFE64B2164810EB8400807891
:1049700010F01F001849087064B2124810EB840050
:10498000C07810F01F0050F0400014490870114822
:1049900000788006FBD50F4800784006FBD50C4810
:1049A000007810F03F000A4908700A480078C0F308
:1049B0008100C0B20328F8D164B2024830F8240064
:1049C000C0B210BD2C0BFF1F700BFF1F0140064033
:1049D00000400640064006400440064005400640B0
:1049E000DFF800F0BB3C0000DFF800F0D13B000036
:1049F000F0204F4908704E4800780006FBD54C481F
:104A000000787121084201D0002000E001207047A9
:104A100080B54848006850F4002046490860464880
:104A2000006850F4002044490860414800780006BE
:104A3000FBD5F0203E490870404800680A2101FB80
:104A400000F10320FFF7D0FF01BD10B582B00400D4
:104A5000A4B24FF4006000FB04F000900920384934
:104A600008709DF80200374908709DF8010036492A
:104A700008709DF8000035490870FFF7B9FF00285D
:104A800001D100200CE0A4B2002C08D17FF001027B
:104A900040F20C41200080B200F003F800E0012059
:104AA00016BD7CB504000D001600A4B24FF40060E2
:104AB000ADB200FB04500190ADB2042095FBF0F1C3
:104AC00001FB1051002903D0EA212148FFF788FF9C
:104AD000ADB2B5F5006F03DDEC211D48FFF780FF97
:104AE0009DF80600174908709DF8050016490870E2
:104AF0009DF804001549087000969DF803001549BB
:104B000008709DF80200144908709DF801001349CF
:104B100008709DF8000012490870062008490870C6
:104B2000FFF766FF002801D1002000E0012076BDDC
:104B30000000024004F0014008F00140C811FF1FCE
:104B40000700024006000240050002400400024047
:104B5000B04D00000B0002400A0002400900024074
:104B600008000240F0B4114E366834000F4E36682B
:104B700056F47F060D4F3E600E0616F0706656EA3C
:104B80000076170517F470073E431F0417F47027CB
:104B90003E43074F3E6000263500EDB29D4201D2F4
:104BA0006D1CFAE7014E3460F0BC704700F0014024
:104BB0004480044080B500F095F800F02AF800F039
:104BC0000AF8FFF79CF8012201210420FEF714FFE8
:104BD00000F0A8F8FEE780B50320FFF79AFE3349FE
:104BE0000860324800684FF47A71484330490860E1
:104BF0002F4800682F490968C1F30361491CB0FBC5
:104C0000F1F02D4908605FF4E1310320FFF752F91C
:104C100001BD2DE9F8432948294988420DD00020DB
:104C20008046B8F5826F08D2254850F828002349FD
:104C300041F8280018F10108F3E7204800F084F853
:104C4000204807002048060020480400A01B80469A
:104C50004046B0F10108002804D030783870761C46
:104C60007F1CF5E71A4881461A480500B5EB090094
:104C700080464046B0F10108002805D0002089F8A0
:104C8000000019F10109F4E713481449144A531AB2
:104C900098464346B3F10108002B04D00B7803700B
:104CA000491C401CF5E7BDE8F1830000C411FF1F5B
:104CB000C011FF1F44800440C811FF1F0000FF1FE8
:104CC000000000001004FF1F04270000E02E000079
:104CD000C00DFF1F1C12FF1FEC0BFF1FE04900005F
:104CE000B44B000080B500F008F80C4800884FF67F
:104CF000FE7108400949088001BDEFF3118072B6CA
:104D00004CF22051064A11804DF62811044A1180B8
:104D1000C0B2002800D162B67047000000200540F4
:104D20000E20054000B583B0FEF7A4FD01200190E0
:104D30000C2000900123012200210020FEF71AFD23
:104D4000FEF7C6FBFEE7000010B504004FF400704C
:104D500094FBF0F101FB1041002903D01E21034810
:104D6000FEF7ABFF0248046010BD0000904E00004B
:104D700008ED00E00A2A2A2A2A64656661756C74C7
:104D80005F69737220656E7465726564206F6E2052
:104D9000766563746F722025642A2A2A2A2A0A0AF1
:104DA000257320496E74657272757074000000007E
:104DB000433A5C55736572735C4D722E57616E6732
:104DC0005C4465736B746F705C6B3630C4A3B0E584
:104DD0005C436869705C7372635C4D4B36305F6630
:104DE0006C6173682E630000433A5C55736572739F
:104DF0005C4D722E57616E675C4465736B746F70A7
:104E00005C6B3630C4A3B0E55C436869705C737258
:104E1000635C4D4B36305F6770696F2E6300000036
:104E2000433A5C55736572735C4D722E57616E67C1
:104E30005C4465736B746F705C6B3630C4A3B0E513
:104E40005C436869705C7372635C4D4B36305F50D5
:104E500049542E6300000000433A5C557365727339
:104E60005C4D722E57616E675C4465736B746F7036
:104E70005C6B3630C4A3B0E55C436869705C7372E8
:104E8000635C4D4B36305F756172742E63000000B9
:104E9000433A5C55736572735C4D722E57616E6751
:104EA0005C4465736B746F705C6B3630C4A3B0E5A3
:104EB0005C436869705C7372635C6D6973632E63D5
:104EC0000000000010B5074979441831064C7C44B5
:104ED000163404E00A68081D511888470146A142AB
:104EE000F8D110BD2C00000038000000417373653C
:104EF0007274696F6E206661696C656420696E20EA
:104F00002573206174206C696E652025640A000099
:104F100047CEFFFF5C040000C00DFF1F0000000033
:104F20000ABDF8D0D0BDE2CBF8B2D9D7F7A3ACC751
:104F3000EBD6D8D0C2CBA2C8EBB9CCBCFE000000E7
:104F400000F00BF8002801D0FFF7BCFF0020C0469E
:104F5000C046FFF7E7FE00F002F80120704700F0BE
:104F600001B800000746384600F002F8FBE70000F1
:104F700001491820ABBEFBE72600020038B5044605
:104F80000D46284600F006F8A84218BF0024204627
:104F900032BD00000149FEF7A8BE00BFAC0BFF1FE9
:104FA0000ABDF8C8EBCBC0D1ADBBB7B5C8B4FDA343
:104FB000A1000000C046C046C046C046FFF7C0FF83
:104FC00000000000000000000000000000000000E1
:104FD000000000000000000000000000FFFFFFFFD5
:104FE000FFFFFFFF000000000000000000000000C5
:104FF00000000000000000000000000000000000B1
:105000000000000000000000FFFFFFFFFFFF0000A6
:105010000000000000000000000000000000000090
:105020000000000000000000000000000000000080
:105030000000000000000000000000000000000070
:08504000000000000000000068
:0400000500004FB5F3
:00000001FF
